:100000003AC0ACC153C052C051C050C04FC04EC026
:100010004DC04CC04BC04AC049C048C047C046C094
:1000200045C044C043C00403090416036E006F00BA
:100030006E002000730079007300740065006D008D
:100040001203530061006D0070006C0065007200C7
:1000500031001201100100000008C016E803000181
:1000600001020001090212000101008019090400C7
:1000700000000000000011241FBECFE5D4E0DEBF69
:10008000CDBF10E0A0E6B0E0E2EAF6E002C00590E5
:100090000D92A436B107D9F710E0A4E6B0E001C094
:1000A0001D92A639B107E1F7D8D2F9C2A9CF1F93A3
:1000B000CF93DF9380917700835087FD09C0209113
:1000C0007400909173009D3209F467C0109277001C
:1000D0008091600084FF53C0609161007091620064
:1000E0008FEF6F3F780709F44AC06930710568F1F6
:1000F0006850704070936200609361008091670067
:1001000098E889278093670068E08091640087FD04
:1001100089C0209175003091760086FF6DC0F9018D
:10012000862FA8E6B0E094919D9331968150D9F73F
:100130002F5F3F4F862F8150280F311D309376005F
:1001400020937500162F1C5F0DC010926200109254
:1001500061008091670098E8892780936700662393
:10016000A1F614E088E690E0F5D01C3031F08FEF76
:100170009FEF90936200809361001093600094E180
:1001800080B3847131F49150D9F7109278001092B5
:100190007200DF91CF911F910895883009F096CFBA
:1001A000CCE0D0E0C21BD109C558DF4F83EC80936F
:1001B00067008AE5809360001092640088818076F1
:1001C00021F59A811092700089818823D1F51092CF
:1001D000710020E730E082E090E0309376002093D9
:1001E00075002E813F812817390708F4C9019093C3
:1001F0006200809361006ACFD901862FE8E6F0E0C3
:100200009D9191938150E1F793CFCE01D3D12FEF00
:100210008F3F920731F7288127FD29C020E82093DE
:100220006400E5CF88E690E0F6D1682F893008F4C5
:100230005CC08FEF9FEF90936200809361001EE19E
:100240009CCF853069F08630A9F0883001F1893083
:1002500019F18A3041F120E730E080E090E0BDCF35
:100260009093780020E730E080E090E0B6CF8E8178
:100270009F81D4CF8B81813079F1823021F183301D
:10028000B9F080E090E020E420936400AACF2AE750
:1002900030E081E090E0A1CF90937A0020E730E059
:1002A00080E090E09ACF20E730E081E090E095CFC9
:1002B0009923F1F486E290E09093760080937500A4
:1002C00084E090E0E0CF84E690E090937600809325
:1002D000750082E190E0D7CF82E590E090937600C0
:1002E0008093750082E190E0CECF182F1C5F3ACF4B
:1002F000913059F0923029F680E490E090937600A6
:100300008093750082E190E0BECF8AE290E0909306
:1003100076008093750086E190E0B5CF85B7826066
:1003200085BF8BB780648BBF0895A82FB92F80E05D
:1003300090E041E050EA609530E009C02D918227BD
:100340009795879510F084279527305EC8F36F5FE7
:10035000A8F30895EADF8D939D930895CF93CFB7C7
:10036000CF93DF93C395849BE9F7849B0BC0849B59
:1003700009C0849B07C0849B05C0849B03C0849BE9
:1003800001C089C06F93C0917400DD27C558DF4F4D
:100390002F9365E5849B03C02F916F91E6CF0F9358
:1003A0001F934F9320E040E15F9300B3047104FB7F
:1003B00027F93F9350E03BE039C0147140642F7738
:1003C000012F5F5F1EC0406810B314712F77525029
:1003D0001FC0406400B32F770471D1F15F5F00C08C
:1003E00023C0406210B32F77147191F15F5F00C09A
:1003F00025C004711027515012F45D5F00001150A8
:1004000027952C3F10B3C8F614710127015027958A
:100410002C3FC8F64227499300B3047110274F734D
:10042000115027952C3FA8F64695469510B31471A8
:1004300079F00127015027952C3F98F66B5A60F30D
:10044000315000B3B0F600C010E41ABF002717C047
:100450003B503195C31BD04010E41ABF0881033CC8
:10046000F9F00B34E9F0209172001981110F121389
:10047000EDCF093651F10D3211F0013E39F70093FD
:1004800079003F915F914F911F910F912F916F9143
:10049000CAB7C6FD67CFDF91CF91CFBFCF91189577
:1004A00020917900222369F310917700112339F507
:1004B00034303AF130937700209373001091740038
:1004C0003BE0311B309374001CC000917700013079
:1004D000B4F40AE53091600034FD14C0009360006C
:1004E000C7E6D0E013C0052710E000C0000002BB43
:1004F0001AC0052710E0221F1DC010E021C04AE5E8
:1005000002C032ED432FC4E1D0E032E011B31461F8
:10051000949A02B311BB54E120E865E320FF05275C
:1005200002BB279517951C3FF0F66695B8F7B1F713
:1005300020FF052702BB279517951C3FD0F627956E
:10054000179517FF052700001C3F02BBB0F6299145
:100550003A9519F70B7E10917800110FC651D040D3
:1005600002BB11F01093720010E41ABF006111B3C6
:100570001B7E402F4B7E54E05A95F1F702BB11BB16
:1005800042BB7FCF9C01932F822F8A9500000000F1
:10059000000000008030C9F79A959030A9F70895BF
:1005A000806687B90000369A349BFECF349A85B1B5
:1005B00090E00895FC0181818232C9F0833230F4E9
:1005C0008131F9F020E030E0C9010895833341F032
:1005D0008F3FC1F781E090E0909395008093940065
:1005E00082818093930020E030E0C90108958281E8
:1005F0009381909392008093910020E030E0C901B4
:1006000008958681978190936600809365002FEF0F
:100610003FEFC9010895262F30E0409165005091C9
:1006200066004217530718F4642F242F30E0421B52
:10063000530B5093660040936500662339F0E82F12
:10064000F92F90E011929F5F9617E0F3862F08959F
:1006500080E687B984E886B90895109295001092D3
:1006600094008FEF9FEF909392008093910088E029
:100670008093930080E687B984E886B94FDE8C9A30
:100680008FEFA895EFE9FFE03197F1F700C0000088
:100690008150B9F78C9878940ADD09DDFDCFF89484
:0206A000FFCF8A
:0406A2005AFFFF00FC
:00000001FF
